:100000000C942A000C9447000C9447000C94470071
:100010000C9447000C9447000C9447000C94470044
:100020000C9447000C9447000C9447000C94470034
:100030000C9447000C9447000C9447000C94470024
:100040000C9447000C9447000C9447000C94470014
:100050000C94470011241FBECFE5D4E0DEBFCDBF16
:1000600010E0A0E6B0E0E8EBF0E002C005900D92F1
:10007000A036B107D9F710E0A0E6B0E001C01D92AC
:10008000A036B107E1F70E9449000C945A000C9485
:10009000000083B78D6683BF8FEF87BB1CBE8CB714
:1000A00083EC99E00197F1F700C000008CB78F5FF7
:0800B0008CBFF5CFF894FFCFDF
:00000001FF
