:100000000C9439000C9456000C9456000C94560035
:100010000C9456000C9456000C9456000C94560008
:100020000C9456000C9456000C9456000C945600F8
:100030000C9456000C9456000C9456000C945600E8
:100040000C9456000C9456000C9456000C945600D8
:100050000C94560005A84CCDB2D44EB93836A9023E
:100060000C50B9918688083CA6AAAA2ABE000000B6
:10007000803F11241FBECFE5D4E0DEBFCDBF10E02E
:10008000A0E6B0E0EEE4F5E002C005900D92A036E7
:10009000B107D9F710E0A0E6B0E001C01D92A0368C
:1000A000B107E1F70E9458000C94A5020C940000DF
:1000B00093B783B7892B8D6683BF88E087BB88BBE6
:1000C000CC24DD246894C3F80F2EF3ECBF2EF02D62
:1000D0000F2EF5EFAF2EF02D0F2EF8EC9F2EF02DFA
:1000E0001CBE7601D0E0C0E010E000E08D2F9C2F18
:1000F000A12FB02FBC01CD010E94220220E030E0F0
:100100004FE753E40E94BF010E9442016CBF8FEF92
:1001100091EEA4E081509040A040E1F700C00000C3
:100120008D2F9C2FA12FB02FBC01CD012DEC3CECCD
:100130004CE45EE30E94DE00D62FC72F182F092F54
:100140000894E108F108E114F10481F67601DB2D51
:10015000CA2D192D0FE38D2F9C2FA12FB02FBC017D
:10016000CD010E94220220E030E04FE753E40E94DC
:10017000BF010E9442016CBF8FEF91EEA4E081505D
:100180009040A040E1F700C000008D2F9C2FA12FD0
:10019000B02FBC01CD012DEC3CEC4CE45EE30E94A1
:1001A000DD00D62FC72F182F092F0894E108F1087A
:1001B000E114F10409F494CFCECF5058BB27AA27FD
:1001C0000ED0A3C094D030F099D020F031F49F3FEE
:1001D00011F41EF489C00EF4E095E7FB7FC0E92F0F
:1001E000A5D080F3BA17620773078407950718F044
:1001F00071F49EF5BDC00EF4E0950B2EBA2FA02D24
:100200000B01B90190010C01CA01A0011124FF27C3
:10021000591B99F0593F50F4503E68F11A16F040BE
:10022000A22F232F342F4427585FF3CF46953795BD
:100230002795A795F0405395C9F77EF41F16BA0B82
:10024000620B730B840BBAF09150A1F0FF0FBB1F30
:10025000661F771F881FC2F70EC0BA0F621F731F79
:10026000841F48F4879577956795B795F7959E3FD6
:1002700008F0B3CF9395880F08F09927EE0F979564
:10028000879508955BD088F09F5790F0B92F9927F4
:10029000B751A0F0D1F0660F771F881F991F1AF091
:1002A000BA95C9F712C0B13081F062D0B1E00895BB
:1002B0005FC0672F782F8827B85F39F0B93FCCF33C
:1002C000869577956795B395D9F73EF49095809587
:1002D000709561957F4F8F4F9F4F089597F99F6756
:1002E00080E870E060E008959FEF80EC08950024BE
:1002F0000A941616170618060906089500240A948B
:1003000012161306140605060895092E0394000C10
:1003100011F4882352F0BB0F40F4BF2B11F460FF9F
:1003200004C06F5F7F4F8F4F9F4F089557FD9058C8
:10033000440F551F59F05F3F71F04795880F97FBA9
:10034000991F61F09F3F79F0879508951216130663
:100350001406551FF2CF4695F1DF08C01616170692
:100360001806991FF1CF86957105610508940895C7
:10037000E894BB2766277727CB0197F908950BD020
:10038000C4CFB5DF28F0BADF18F0952309F0A6CF67
:10039000ABCF1124EECFCADFA0F3959FD1F3950F19
:1003A00050E0551F629FF001729FBB27F00DB11DF9
:1003B000639FAA27F00DB11DAA1F649F6627B00D89
:1003C000A11D661F829F2227B00DA11D621F739F72
:1003D000B00DA11D621F839FA00D611D221F749F80
:1003E0003327A00D611D231F849F600D211D822FC7
:1003F000762F6A2F11249F5750408AF0E1F088230E
:100400004AF0EE0FFF1FBB1F661F771F881F91501A
:100410005040A9F79E3F510570F060CFAACF5F3FD3
:10042000ECF3983EDCF3869577956795B795F7954D
:10043000E7959F5FC1F7FE2B880F911D96958795D5
:1004400097F908959F9305D00F9007FCEE5F28C0A1
:100450004BCF74DFE8F3E894E0E0BB279F57F0F060
:100460002AED3FE049EC06C0EE0FBB0F661F771F79
:10047000881F28F0B23A62077307840728F0B25A3F
:10048000620B730B840BE3959A9572F7803830F406
:100490009A95BB0F661F771F881FD2F7904813C02D
:1004A000EF93E0FF06C0A2EA2AED3FE049EC5FEBE4
:1004B00096DE2BDF0F90039401FC9058E4E5F0E00A
:1004C0000EC09F3F31F0915020F487957795679546
:1004D000B795880F911D9695879597F908959F93E5
:1004E0008F937F936F93FF93EF939B01AC0147DF53
:1004F000EF91FF9105D02F913F914F915F913FCFA9
:10050000DF93CF931F930F93FF92EF92DF927B01C4
:100510008C01689405C0DA2EEF013DDFFE01E894FE
:10052000A5912591359145915591AEF3EF0157DE97
:10053000FE019701A801DA9479F7DF90EF90FF9020
:0E0540000F911F91CF91DF910895F894FFCF96
:00000001FF
