:100000000C942A000C9447000C9447000C94470071
:100010000C9447000C9447000C9447000C94470044
:100020000C9447000C9447000C9447000C94470034
:100030000C9447000C9447000C9447000C94470024
:100040000C9447000C9447000C9447000C94470014
:100050000C94470011241FBECFE5D4E0DEBFCDBF16
:1000600010E0A0E6B0E0EEE2F1E002C005900D92F3
:10007000A036B107D9F710E0A0E6B0E001C01D92AC
:10008000A036B107E1F70E9449000C9495000C944A
:10009000000080E687B987E886B98FEF87BB18BA7A
:1000A00060E850E440E270E1E8E0F4E0A2E0B1E0B2
:1000B000369A3699FECF85B190E09C0121503040B0
:1000C0002F31310508F468BB9C01215230402F319B
:1000D000310508F458BB9C01215430402F313105C3
:1000E00008F448BB9C01215630402F31310508F4FB
:1000F00078BB9C01215830402F31310508F4E8BB12
:100100009C01215A30402F31310508F4F8BB9C0185
:10011000215C30402F31310508F4A8BB815E90404E
:0E0120008F31910528F6B8BBC3CFF894FFCFFE
:00000001FF
