:100000000C942A000C9447000C9447000C94470071
:100010000C9447000C9447000C9447000C94470044
:100020000C9447000C9447000C9447000C94470034
:100030000C9447000C9447000C9447000C94470024
:100040000C9447000C9447000C9447000C94470014
:100050000C94470011241FBECFE5D4E0DEBFCDBF16
:1000600010E0A0E6B0E0ECEFF0E002C005900D92E9
:10007000A036B107D9F710E0A0E6B0E001C01D92AC
:10008000A036B107E1F70E946B000C947C000C9441
:1000900000009C01220F331F820F931F9C01220F2F
:1000A000331F220F331F280F391F822F932F9923BD
:1000B00014F481509F4F292F332727FD3A9512BE04
:1000C00080E090E042B74F3F11F4019612BE8217D4
:1000D0009307C4F308958FEF87BB83B7856083BF11
:1000E000CFEFC8BB88EE93E00E94490018BA88EEB3
:0C00F00093E00E944900F5CFF894FFCF88
:00000001FF
