:100000000C942A000C9449000C9447000C9447006F
:100010000C9447000C9447000C9447000C94470044
:100020000C9447000C9447000C9447000C94470034
:100030000C9447000C9447000C9447000C94470024
:100040000C9447000C9447000C9447000C94470014
:100050000C94470011241FBECFE5D4E0DEBFCDBF16
:1000600010E0A0E6B0E0E0E5F1E002C005900D92FE
:10007000A036B107D9F710E0A0E6B0E001C01D92AC
:10008000A036B107E1F70E9488000C94A6000C94FA
:1000900000001F920F920FB60F9211242F934F93CF
:1000A0005F936F937F938F939F93AF93BF934FEF24
:1000B00059E668E1415050406040E1F700C000005F
:1000C00028B385E09FEF18BA4FEF59E668E1415039
:1000D00050406040E1F700C0000098BB4FEF59E688
:1000E00068E1415050406040E1F700C0000081509D
:1000F00051F728BBBF91AF919F918F917F916F91E5
:100100005F914F912F910F900FBE0F901F901895F8
:1001100084E081BB82BB8FEF87BB81E088BB80E43A
:100120008BBF83E085BF789491E0C79B02C098BBEA
:1001300003C088B3880F88BB2FEF39E648E1215010
:1001400030404040E1F700C00000EFCFF894FFCF0F
:00000001FF
