:100000000C942A000C9447000C9447000C94470071
:100010000C9447000C9447000C9447000C94470044
:100020000C9447000C9447000C9447000C94470034
:100030000C9447000C9447000C9447000C94470024
:100040000C9447000C9447000C9447000C94470014
:100050000C94470011241FBECFE5D4E0DEBFCDBF16
:1000600010E0A0E6B0E0E6EDF0E002C005900D92F1
:10007000A036B107D9F710E0A0E6B0E001C01D92AC
:10008000A036B107E1F70E945A000C9469000C9465
:10009000000010BC87E689B98AB188618AB980B549
:1000A000866880BD08955D9BFECF8CB908958BB1A5
:1000B0008CB108950E9449008BE60E9453008FEF97
:1000C00093EDA0E381509040A040E1F700C0000014
:0600D000F3CFF894FFCF0E
:00000001FF
