:100000000C942A000C9447000C9447000C94470071
:100010000C9447000C9447000C9447000C94470044
:100020000C9447000C9447000C9447000C94470034
:100030000C9447000C9447000C9447000C94470024
:100040000C9447000C9447000C9447000C94470014
:100050000C94470011241FBECFE5D4E0DEBFCDBF16
:1000600010E0A0E6B0E0E4EDF0E002C005900D92F3
:10007000A036B107D9F710E0A0E6B0E001C01D92AC
:10008000A036B107E1F70E9449000C9468000C9477
:1000900000008FEF87BB80E090E040E850E060E038
:1000A00070E09A01082E02C0359527950A94E2F770
:1000B00028BB0FE31DE023E0015010402040E1F792
:1000C00000C000000196883091055CF3CB01E9CFB8
:0400D000F894FFCFD2
:00000001FF
