:100000000C942A000C9449000C9447000C9447006F
:100010000C9447000C9447000C9447000C94470044
:100020000C9447000C9447000C9447000C94470034
:100030000C9447000C9447000C9447000C94470024
:100040000C9447000C9447000C9447000C94470014
:100050000C94470011241FBECFE5D4E0DEBFCDBF16
:1000600010E0A0E6B0E0E4E2F1E002C005900D92FD
:10007000A036B107D9F710E0A0E6B0E001C01D92AC
:10008000A036B107E1F70E947B000C9490000C941D
:1000900000001F920F920FB60F9211242F934F93CF
:1000A0005F936F937F938F939F9328B385E09FEF28
:1000B00018BA4FEF59E668E1415050406040E1F70F
:1000C00000C0000098BB4FEF59E668E14150504036
:1000D0006040E1F700C00000815051F728BB9F91BC
:1000E0008F917F916F915F914F912F910F900FBEE4
:1000F0000F901F90189584E081BB12BA8FEF87BBD9
:1001000018BA80E48BBF83E085BF78948FEF99E6BF
:10011000A8E181509040A040E1F700C00000F6CF78
:04012000F894FFCF81
:00000001FF
