:100000000C942A000C9447000C9447000C94470071
:100010000C9447000C9447000C9447000C94470044
:100020000C9447000C9447000C9447000C94470034
:100030000C9447000C9447000C9447000C94470024
:100040000C9447000C9447000C9447000C94470014
:100050000C94470011241FBECFE5D4E0DEBFCDBF16
:1000600010E0A0E6B0E0E0ECF1E002C005900D92F7
:10007000AA37B107D9F710E0AAE7B0E001C01D9296
:10008000AA37B107E1F70E94CA000C94DE000C9475
:1000900000008FEF85BB87E893E10197F1F700C07F
:1000A000000098E395BB80E385BBE3ECF9E0319772
:1000B000F1F700C0000095BB85BBE9EFF0E0319798
:1000C000F1F700C0000095BB85BB89EF90E0019778
:1000D000F1F700C0000088E285BB80E285BBE9EF54
:1000E000F0E03197F1F700C000000895982F907F5D
:1000F000292F286025BB95BB90E082959295907F33
:100100009827807F9827982F986095BB85BB83EFB1
:1001100091E00197F1F700C0000083EF91E00197B3
:10012000F1F700C0000008950E9449008CE00E9491
:10013000760086E00E94760080E80E9476000895AE
:10014000982F907F292F296025BB916095BB8295C0
:10015000807F982F996095BB816085BB83EF91E08C
:100160000197F1F700C0000083EF91E00197F1F7EC
:1001700000C000000895CF93DF93EC0188818823AD
:1001800031F021960E94A00089918823D9F7DF9150
:10019000CF9108950E94940081E00E94760080E84B
:1001A0000E94760080E690E00E94BB0080EC0E94F6
:1001B00076008FE690E00E94BB00FFCFF894FFCF5F
:1001C000656C656374726F6F6E732E636F6D004C38
:0A01D000434420342042697400000B
:00000001FF
